{
  "contractName": "EHR",
  "abi": [
    {
      "inputs": [
        {
          "internalType": "uint256",
          "name": "",
          "type": "uint256"
        }
      ],
      "name": "DoctorList",
      "outputs": [
        {
          "internalType": "address",
          "name": "",
          "type": "address"
        }
      ],
      "stateMutability": "view",
      "type": "function",
      "constant": true
    },
    {
      "inputs": [
        {
          "internalType": "uint256",
          "name": "",
          "type": "uint256"
        }
      ],
      "name": "PatientList",
      "outputs": [
        {
          "internalType": "address",
          "name": "",
          "type": "address"
        }
      ],
      "stateMutability": "view",
      "type": "function",
      "constant": true
    },
    {
      "inputs": [
        {
          "internalType": "address",
          "name": "",
          "type": "address"
        }
      ],
      "name": "doctor",
      "outputs": [
        {
          "internalType": "string",
          "name": "name",
          "type": "string"
        },
        {
          "internalType": "uint256",
          "name": "age",
          "type": "uint256"
        },
        {
          "internalType": "string",
          "name": "gender",
          "type": "string"
        }
      ],
      "stateMutability": "view",
      "type": "function",
      "constant": true
    },
    {
      "inputs": [
        {
          "internalType": "address",
          "name": "",
          "type": "address"
        }
      ],
      "name": "patient",
      "outputs": [
        {
          "internalType": "string",
          "name": "name",
          "type": "string"
        },
        {
          "internalType": "uint256",
          "name": "age",
          "type": "uint256"
        },
        {
          "internalType": "string",
          "name": "gender",
          "type": "string"
        }
      ],
      "stateMutability": "view",
      "type": "function",
      "constant": true
    },
    {
      "inputs": [
        {
          "internalType": "string",
          "name": "name",
          "type": "string"
        },
        {
          "internalType": "uint256",
          "name": "age",
          "type": "uint256"
        },
        {
          "internalType": "string",
          "name": "gender",
          "type": "string"
        },
        {
          "internalType": "uint256",
          "name": "selection",
          "type": "uint256"
        }
      ],
      "name": "Register",
      "outputs": [],
      "stateMutability": "nonpayable",
      "type": "function"
    },
    {
      "inputs": [],
      "name": "getPatientsfromDoctor",
      "outputs": [
        {
          "internalType": "address[]",
          "name": "",
          "type": "address[]"
        }
      ],
      "stateMutability": "view",
      "type": "function",
      "constant": true
    },
    {
      "inputs": [
        {
          "internalType": "address",
          "name": "_patient",
          "type": "address"
        }
      ],
      "name": "getpatientInfor",
      "outputs": [
        {
          "internalType": "string",
          "name": "",
          "type": "string"
        },
        {
          "internalType": "string",
          "name": "",
          "type": "string"
        },
        {
          "internalType": "uint256",
          "name": "",
          "type": "uint256"
        }
      ],
      "stateMutability": "view",
      "type": "function",
      "constant": true
    },
    {
      "inputs": [
        {
          "internalType": "address",
          "name": "_doctor",
          "type": "address"
        }
      ],
      "name": "getdoctorInfor",
      "outputs": [
        {
          "internalType": "string",
          "name": "",
          "type": "string"
        },
        {
          "internalType": "string",
          "name": "",
          "type": "string"
        },
        {
          "internalType": "uint256",
          "name": "",
          "type": "uint256"
        }
      ],
      "stateMutability": "view",
      "type": "function",
      "constant": true
    },
    {
      "inputs": [],
      "name": "getdoctors",
      "outputs": [
        {
          "internalType": "address[]",
          "name": "",
          "type": "address[]"
        }
      ],
      "stateMutability": "view",
      "type": "function",
      "constant": true
    },
    {
      "inputs": [],
      "name": "getpatients",
      "outputs": [
        {
          "internalType": "address[]",
          "name": "",
          "type": "address[]"
        }
      ],
      "stateMutability": "view",
      "type": "function",
      "constant": true
    },
    {
      "inputs": [
        {
          "internalType": "address",
          "name": "_patient",
          "type": "address"
        }
      ],
      "name": "getAlloweddoctor",
      "outputs": [
        {
          "internalType": "address[]",
          "name": "",
          "type": "address[]"
        }
      ],
      "stateMutability": "view",
      "type": "function",
      "constant": true
    },
    {
      "inputs": [
        {
          "internalType": "address",
          "name": "_doctor",
          "type": "address"
        }
      ],
      "name": "getAllowedpatient",
      "outputs": [
        {
          "internalType": "address[]",
          "name": "",
          "type": "address[]"
        }
      ],
      "stateMutability": "view",
      "type": "function",
      "constant": true
    },
    {
      "inputs": [
        {
          "internalType": "address",
          "name": "Addressdoctor",
          "type": "address"
        }
      ],
      "name": "grantDoctorAccess",
      "outputs": [],
      "stateMutability": "nonpayable",
      "type": "function"
    },
    {
      "inputs": [
        {
          "internalType": "address",
          "name": "Addressdoctor",
          "type": "address"
        }
      ],
      "name": "revokeDoctorAccess",
      "outputs": [],
      "stateMutability": "nonpayable",
      "type": "function"
    },
    {
      "inputs": [
        {
          "internalType": "address",
          "name": "_patient",
          "type": "address"
        },
        {
          "internalType": "string",
          "name": "_diagnosis",
          "type": "string"
        },
        {
          "internalType": "string",
          "name": "_information",
          "type": "string"
        }
      ],
      "name": "addEHR",
      "outputs": [],
      "stateMutability": "nonpayable",
      "type": "function"
    },
    {
      "inputs": [
        {
          "internalType": "address",
          "name": "_patient",
          "type": "address"
        }
      ],
      "name": "getEHR",
      "outputs": [
        {
          "components": [
            {
              "internalType": "string",
              "name": "diagnosis",
              "type": "string"
            },
            {
              "internalType": "string",
              "name": "information",
              "type": "string"
            },
            {
              "internalType": "uint256",
              "name": "time",
              "type": "uint256"
            },
            {
              "internalType": "address",
              "name": "doctor",
              "type": "address"
            }
          ],
          "internalType": "struct EHR.HealthNote[]",
          "name": "",
          "type": "tuple[]"
        }
      ],
      "stateMutability": "view",
      "type": "function",
      "constant": true
    }
  ],
  "bytecode": "0x608060405234801561001057600080fd5b506125df806100206000396000f3fe608060405234801561001057600080fd5b50600436106101005760003560e01c80638195221111610097578063a161bd2611610066578063a161bd26146102e7578063ab55ac2d14610305578063d44427b114610337578063dc01539f1461036957610100565b806381952211146102375780638e3d72bf146102675780639b2d325514610285578063a15e0f80146102b557610100565b80633a722271116100d35780633a7222711461019f5780633df95ab8146101cf5780634940987d146101eb5780635b4537f11461020757610100565b806312e0808f146101055780631ce8e455146101215780632358bd951461015157806336006ec814610183575b600080fd5b61011f600480360381019061011a9190611e4c565b610387565b005b61013b60048036038101906101369190611f87565b6104d0565b60405161014891906121c7565b60405180910390f35b61016b60048036038101906101669190611e4c565b61050f565b60405161017a9392919061226b565b60405180910390f35b61019d60048036038101906101989190611e75565b610649565b005b6101b960048036038101906101b49190611f87565b610c51565b6040516101c691906121c7565b60405180910390f35b6101e960048036038101906101e49190611e4c565b610c90565b005b61020560048036038101906102009190611ef4565b611161565b005b610221600480360381019061021c9190611e4c565b61133a565b60405161022e9190612204565b60405180910390f35b610251600480360381019061024c9190611e4c565b61155f565b60405161025e91906121e2565b60405180910390f35b61026f61162f565b60405161027c91906121e2565b60405180910390f35b61029f600480360381019061029a9190611e4c565b6116bd565b6040516102ac91906121e2565b60405180910390f35b6102cf60048036038101906102ca9190611e4c565b61178d565b6040516102de93929190612226565b60405180910390f35b6102ef611907565b6040516102fc91906121e2565b60405180910390f35b61031f600480360381019061031a9190611e4c565b611995565b60405161032e93929190612226565b60405180910390f35b610351600480360381019061034c9190611e4c565b611b0f565b6040516103609392919061226b565b60405180910390f35b610371611c49565b60405161037e91906121e2565b60405180910390f35b600260003373ffffffffffffffffffffffffffffffffffffffff1673ffffffffffffffffffffffffffffffffffffffff168152602001908152602001600020600301819080600181540180825580915050600190039060005260206000200160009091909190916101000a81548173ffffffffffffffffffffffffffffffffffffffff021916908373ffffffffffffffffffffffffffffffffffffffff160217905550600360008273ffffffffffffffffffffffffffffffffffffffff1673ffffffffffffffffffffffffffffffffffffffff168152602001908152602001600020600301339080600181540180825580915050600190039060005260206000200160009091909190916101000a81548173ffffffffffffffffffffffffffffffffffffffff021916908373ffffffffffffffffffffffffffffffffffffffff16021790555050565b600181815481106104e057600080fd5b906000526020600020016000915054906101000a900473ffffffffffffffffffffffffffffffffffffffff1681565b600360205280600052604060002060009150905080600001805461053290612462565b80601f016020809104026020016040519081016040528092919081815260200182805461055e90612462565b80156105ab5780601f10610580576101008083540402835291602001916105ab565b820191906000526020600020905b81548152906001019060200180831161058e57829003601f168201915b5050505050908060010154908060020180546105c690612462565b80601f01602080910402602001604051908101604052809291908181526020018280546105f290612462565b801561063f5780601f106106145761010080835404028352916020019161063f565b820191906000526020600020905b81548152906001019060200180831161062257829003601f168201915b5050505050905083565b600060405180608001604052808481526020018381526020014281526020013373ffffffffffffffffffffffffffffffffffffffff168152509050600260008573ffffffffffffffffffffffffffffffffffffffff1673ffffffffffffffffffffffffffffffffffffffff168152602001908152602001600020600401819080600181540180825580915050600190039060005260206000209060040201600090919091909150600082015181600001908051906020019061070c929190611d17565b506020820151816001019080519060200190610729929190611d17565b506040820151816002015560608201518160030160006101000a81548173ffffffffffffffffffffffffffffffffffffffff021916908373ffffffffffffffffffffffffffffffffffffffff16021790555050506000600260008673ffffffffffffffffffffffffffffffffffffffff1673ffffffffffffffffffffffffffffffffffffffff168152602001908152602001600020600301905060005b81805490508110156109e2573373ffffffffffffffffffffffffffffffffffffffff16828281548110610822577f4e487b7100000000000000000000000000000000000000000000000000000000600052603260045260246000fd5b9060005260206000200160009054906101000a900473ffffffffffffffffffffffffffffffffffffffff1673ffffffffffffffffffffffffffffffffffffffff1614156109cf57816001838054905061087b91906123b0565b815481106108b2577f4e487b7100000000000000000000000000000000000000000000000000000000600052603260045260246000fd5b9060005260206000200160009054906101000a900473ffffffffffffffffffffffffffffffffffffffff16828281548110610916577f4e487b7100000000000000000000000000000000000000000000000000000000600052603260045260246000fd5b9060005260206000200160006101000a81548173ffffffffffffffffffffffffffffffffffffffff021916908373ffffffffffffffffffffffffffffffffffffffff16021790555081805480610995577f4e487b7100000000000000000000000000000000000000000000000000000000600052603160045260246000fd5b6001900381819060005260206000200160006101000a81549073ffffffffffffffffffffffffffffffffffffffff021916905590556109e2565b80806109da90612494565b9150506107c6565b506000600360003373ffffffffffffffffffffffffffffffffffffffff1673ffffffffffffffffffffffffffffffffffffffff168152602001908152602001600020600301905060005b8180549050811015610c48578673ffffffffffffffffffffffffffffffffffffffff16828281548110610a88577f4e487b7100000000000000000000000000000000000000000000000000000000600052603260045260246000fd5b9060005260206000200160009054906101000a900473ffffffffffffffffffffffffffffffffffffffff1673ffffffffffffffffffffffffffffffffffffffff161415610c35578160018380549050610ae191906123b0565b81548110610b18577f4e487b7100000000000000000000000000000000000000000000000000000000600052603260045260246000fd5b9060005260206000200160009054906101000a900473ffffffffffffffffffffffffffffffffffffffff16828281548110610b7c577f4e487b7100000000000000000000000000000000000000000000000000000000600052603260045260246000fd5b9060005260206000200160006101000a81548173ffffffffffffffffffffffffffffffffffffffff021916908373ffffffffffffffffffffffffffffffffffffffff16021790555081805480610bfb577f4e487b7100000000000000000000000000000000000000000000000000000000600052603160045260246000fd5b6001900381819060005260206000200160006101000a81549073ffffffffffffffffffffffffffffffffffffffff02191690559055610c48565b8080610c4090612494565b915050610a2c565b50505050505050565b60008181548110610c6157600080fd5b906000526020600020016000915054906101000a900473ffffffffffffffffffffffffffffffffffffffff1681565b6000600260003373ffffffffffffffffffffffffffffffffffffffff1673ffffffffffffffffffffffffffffffffffffffff168152602001908152602001600020600301905060005b8180549050811015610ef5578273ffffffffffffffffffffffffffffffffffffffff16828281548110610d35577f4e487b7100000000000000000000000000000000000000000000000000000000600052603260045260246000fd5b9060005260206000200160009054906101000a900473ffffffffffffffffffffffffffffffffffffffff1673ffffffffffffffffffffffffffffffffffffffff161415610ee2578160018380549050610d8e91906123b0565b81548110610dc5577f4e487b7100000000000000000000000000000000000000000000000000000000600052603260045260246000fd5b9060005260206000200160009054906101000a900473ffffffffffffffffffffffffffffffffffffffff16828281548110610e29577f4e487b7100000000000000000000000000000000000000000000000000000000600052603260045260246000fd5b9060005260206000200160006101000a81548173ffffffffffffffffffffffffffffffffffffffff021916908373ffffffffffffffffffffffffffffffffffffffff16021790555081805480610ea8577f4e487b7100000000000000000000000000000000000000000000000000000000600052603160045260246000fd5b6001900381819060005260206000200160006101000a81549073ffffffffffffffffffffffffffffffffffffffff02191690559055610ef5565b8080610eed90612494565b915050610cd9565b506000600360008473ffffffffffffffffffffffffffffffffffffffff1673ffffffffffffffffffffffffffffffffffffffff168152602001908152602001600020600301905060005b818054905081101561115b573373ffffffffffffffffffffffffffffffffffffffff16828281548110610f9b577f4e487b7100000000000000000000000000000000000000000000000000000000600052603260045260246000fd5b9060005260206000200160009054906101000a900473ffffffffffffffffffffffffffffffffffffffff1673ffffffffffffffffffffffffffffffffffffffff161415611148578160018380549050610ff491906123b0565b8154811061102b577f4e487b7100000000000000000000000000000000000000000000000000000000600052603260045260246000fd5b9060005260206000200160009054906101000a900473ffffffffffffffffffffffffffffffffffffffff1682828154811061108f577f4e487b7100000000000000000000000000000000000000000000000000000000600052603260045260246000fd5b9060005260206000200160006101000a81548173ffffffffffffffffffffffffffffffffffffffff021916908373ffffffffffffffffffffffffffffffffffffffff1602179055508180548061110e577f4e487b7100000000000000000000000000000000000000000000000000000000600052603160045260246000fd5b6001900381819060005260206000200160006101000a81549073ffffffffffffffffffffffffffffffffffffffff0219169055905561115b565b808061115390612494565b915050610f3f565b50505050565b6000811415611251576000600260003373ffffffffffffffffffffffffffffffffffffffff1673ffffffffffffffffffffffffffffffffffffffff1681526020019081526020016000209050848160000190805190602001906111c5929190611d17565b50838160010181905550828160020190805190602001906111e7929190611d17565b506001339080600181540180825580915050600190039060005260206000200160009091909190916101000a81548173ffffffffffffffffffffffffffffffffffffffff021916908373ffffffffffffffffffffffffffffffffffffffff16021790555050611334565b6000600360003373ffffffffffffffffffffffffffffffffffffffff1673ffffffffffffffffffffffffffffffffffffffff1681526020019081526020016000209050848160000190805190602001906112ac929190611d17565b50838160010181905550828160020190805190602001906112ce929190611d17565b506000339080600181540180825580915050600190039060005260206000200160009091909190916101000a81548173ffffffffffffffffffffffffffffffffffffffff021916908373ffffffffffffffffffffffffffffffffffffffff160217905550505b50505050565b6060600260008373ffffffffffffffffffffffffffffffffffffffff1673ffffffffffffffffffffffffffffffffffffffff168152602001908152602001600020600401805480602002602001604051908101604052809291908181526020016000905b8282101561155457838290600052602060002090600402016040518060800160405290816000820180546113d190612462565b80601f01602080910402602001604051908101604052809291908181526020018280546113fd90612462565b801561144a5780601f1061141f5761010080835404028352916020019161144a565b820191906000526020600020905b81548152906001019060200180831161142d57829003601f168201915b5050505050815260200160018201805461146390612462565b80601f016020809104026020016040519081016040528092919081815260200182805461148f90612462565b80156114dc5780601f106114b1576101008083540402835291602001916114dc565b820191906000526020600020905b8154815290600101906020018083116114bf57829003601f168201915b50505050508152602001600282015481526020016003820160009054906101000a900473ffffffffffffffffffffffffffffffffffffffff1673ffffffffffffffffffffffffffffffffffffffff1673ffffffffffffffffffffffffffffffffffffffff16815250508152602001906001019061139e565b505050509050919050565b6060600360008373ffffffffffffffffffffffffffffffffffffffff1673ffffffffffffffffffffffffffffffffffffffff16815260200190815260200160002060030180548060200260200160405190810160405280929190818152602001828054801561162357602002820191906000526020600020905b8160009054906101000a900473ffffffffffffffffffffffffffffffffffffffff1673ffffffffffffffffffffffffffffffffffffffff16815260200190600101908083116115d9575b50505050509050919050565b606060008054806020026020016040519081016040528092919081815260200182805480156116b357602002820191906000526020600020905b8160009054906101000a900473ffffffffffffffffffffffffffffffffffffffff1673ffffffffffffffffffffffffffffffffffffffff1681526020019060010190808311611669575b5050505050905090565b6060600260008373ffffffffffffffffffffffffffffffffffffffff1673ffffffffffffffffffffffffffffffffffffffff16815260200190815260200160002060030180548060200260200160405190810160405280929190818152602001828054801561178157602002820191906000526020600020905b8160009054906101000a900473ffffffffffffffffffffffffffffffffffffffff1673ffffffffffffffffffffffffffffffffffffffff1681526020019060010190808311611737575b50505050509050919050565b606080600080600260008673ffffffffffffffffffffffffffffffffffffffff1673ffffffffffffffffffffffffffffffffffffffff1681526020019081526020016000209050806000018160020182600101548280546117ed90612462565b80601f016020809104026020016040519081016040528092919081815260200182805461181990612462565b80156118665780601f1061183b57610100808354040283529160200191611866565b820191906000526020600020905b81548152906001019060200180831161184957829003601f168201915b5050505050925081805461187990612462565b80601f01602080910402602001604051908101604052809291908181526020018280546118a590612462565b80156118f25780601f106118c7576101008083540402835291602001916118f2565b820191906000526020600020905b8154815290600101906020018083116118d557829003601f168201915b50505050509150935093509350509193909250565b6060600180548060200260200160405190810160405280929190818152602001828054801561198b57602002820191906000526020600020905b8160009054906101000a900473ffffffffffffffffffffffffffffffffffffffff1673ffffffffffffffffffffffffffffffffffffffff1681526020019060010190808311611941575b5050505050905090565b606080600080600360008673ffffffffffffffffffffffffffffffffffffffff1673ffffffffffffffffffffffffffffffffffffffff1681526020019081526020016000209050806000018160020182600101548280546119f590612462565b80601f0160208091040260200160405190810160405280929190818152602001828054611a2190612462565b8015611a6e5780601f10611a4357610100808354040283529160200191611a6e565b820191906000526020600020905b815481529060010190602001808311611a5157829003601f168201915b50505050509250818054611a8190612462565b80601f0160208091040260200160405190810160405280929190818152602001828054611aad90612462565b8015611afa5780601f10611acf57610100808354040283529160200191611afa565b820191906000526020600020905b815481529060010190602001808311611add57829003601f168201915b50505050509150935093509350509193909250565b6002602052806000526040600020600091509050806000018054611b3290612462565b80601f0160208091040260200160405190810160405280929190818152602001828054611b5e90612462565b8015611bab5780601f10611b8057610100808354040283529160200191611bab565b820191906000526020600020905b815481529060010190602001808311611b8e57829003601f168201915b505050505090806001015490806002018054611bc690612462565b80601f0160208091040260200160405190810160405280929190818152602001828054611bf290612462565b8015611c3f5780601f10611c1457610100808354040283529160200191611c3f565b820191906000526020600020905b815481529060010190602001808311611c2257829003601f168201915b5050505050905083565b6060600360003373ffffffffffffffffffffffffffffffffffffffff1673ffffffffffffffffffffffffffffffffffffffff168152602001908152602001600020600301805480602002602001604051908101604052809291908181526020018280548015611d0d57602002820191906000526020600020905b8160009054906101000a900473ffffffffffffffffffffffffffffffffffffffff1673ffffffffffffffffffffffffffffffffffffffff1681526020019060010190808311611cc3575b5050505050905090565b828054611d2390612462565b90600052602060002090601f016020900481019282611d455760008555611d8c565b82601f10611d5e57805160ff1916838001178555611d8c565b82800160010185558215611d8c579182015b82811115611d8b578251825591602001919060010190611d70565b5b509050611d999190611d9d565b5090565b5b80821115611db6576000816000905550600101611d9e565b5090565b6000611dcd611dc8846122e1565b6122b0565b905082815260208101848484011115611de557600080fd5b611df0848285612420565b509392505050565b600081359050611e078161257b565b92915050565b600082601f830112611e1e57600080fd5b8135611e2e848260208601611dba565b91505092915050565b600081359050611e4681612592565b92915050565b600060208284031215611e5e57600080fd5b6000611e6c84828501611df8565b91505092915050565b600080600060608486031215611e8a57600080fd5b6000611e9886828701611df8565b935050602084013567ffffffffffffffff811115611eb557600080fd5b611ec186828701611e0d565b925050604084013567ffffffffffffffff811115611ede57600080fd5b611eea86828701611e0d565b9150509250925092565b60008060008060808587031215611f0a57600080fd5b600085013567ffffffffffffffff811115611f2457600080fd5b611f3087828801611e0d565b9450506020611f4187828801611e37565b935050604085013567ffffffffffffffff811115611f5e57600080fd5b611f6a87828801611e0d565b9250506060611f7b87828801611e37565b91505092959194509250565b600060208284031215611f9957600080fd5b6000611fa784828501611e37565b91505092915050565b6000611fbc8383611fdc565b60208301905092915050565b6000611fd4838361213f565b905092915050565b611fe5816123e4565b82525050565b611ff4816123e4565b82525050565b600061200582612331565b61200f818561236c565b935061201a83612311565b8060005b8381101561204b5781516120328882611fb0565b975061203d83612352565b92505060018101905061201e565b5085935050505092915050565b60006120638261233c565b61206d818561237d565b93508360208202850161207f85612321565b8060005b858110156120bb578484038952815161209c8582611fc8565b94506120a78361235f565b925060208a01995050600181019050612083565b50829750879550505050505092915050565b60006120d882612347565b6120e2818561238e565b93506120f281856020860161242f565b6120fb8161256a565b840191505092915050565b600061211182612347565b61211b818561239f565b935061212b81856020860161242f565b6121348161256a565b840191505092915050565b6000608083016000830151848203600086015261215c82826120cd565b9150506020830151848203602086015261217682826120cd565b915050604083015161218b60408601826121a9565b50606083015161219e6060860182611fdc565b508091505092915050565b6121b281612416565b82525050565b6121c181612416565b82525050565b60006020820190506121dc6000830184611feb565b92915050565b600060208201905081810360008301526121fc8184611ffa565b905092915050565b6000602082019050818103600083015261221e8184612058565b905092915050565b600060608201905081810360008301526122408186612106565b905081810360208301526122548185612106565b905061226360408301846121b8565b949350505050565b600060608201905081810360008301526122858186612106565b905061229460208301856121b8565b81810360408301526122a68184612106565b9050949350505050565b6000604051905081810181811067ffffffffffffffff821117156122d7576122d661253b565b5b8060405250919050565b600067ffffffffffffffff8211156122fc576122fb61253b565b5b601f19601f8301169050602081019050919050565b6000819050602082019050919050565b6000819050602082019050919050565b600081519050919050565b600081519050919050565b600081519050919050565b6000602082019050919050565b6000602082019050919050565b600082825260208201905092915050565b600082825260208201905092915050565b600082825260208201905092915050565b600082825260208201905092915050565b60006123bb82612416565b91506123c683612416565b9250828210156123d9576123d86124dd565b5b828203905092915050565b60006123ef826123f6565b9050919050565b600073ffffffffffffffffffffffffffffffffffffffff82169050919050565b6000819050919050565b82818337600083830152505050565b60005b8381101561244d578082015181840152602081019050612432565b8381111561245c576000848401525b50505050565b6000600282049050600182168061247a57607f821691505b6020821081141561248e5761248d61250c565b5b50919050565b600061249f82612416565b91507fffffffffffffffffffffffffffffffffffffffffffffffffffffffffffffffff8214156124d2576124d16124dd565b5b600182019050919050565b7f4e487b7100000000000000000000000000000000000000000000000000000000600052601160045260246000fd5b7f4e487b7100000000000000000000000000000000000000000000000000000000600052602260045260246000fd5b7f4e487b7100000000000000000000000000000000000000000000000000000000600052604160045260246000fd5b6000601f19601f8301169050919050565b612584816123e4565b811461258f57600080fd5b50565b61259b81612416565b81146125a657600080fd5b5056fea26469706673582212202f7bb8ea924fb781abf47dc5e7d4df60ea02befeab6b7103ae5445d44a4ed8e664736f6c63430008000033",
  "immutableReferences": {},
  "source": "// SPDX-License-Identifier: MIT\n// pragma solidity >=0.4.22 <0.9.0;\npragma solidity ^0.8.0;\n\ncontract EHR{\n    struct Doctor{\n        string name;\n        uint age;\n        string gender;\n        address[] allowedpatientList;\n\n    }\n\n    struct Patient{\n        string name;\n        uint age;\n        string gender;\n        address[] alloweddoctorList;\n        HealthNote[] records;\n    }\n    struct HealthNote{\n        string diagnosis;\n        string information;\n        uint256 time;\n        address doctor;\n    }\n\n\n\n    address [] public DoctorList;\n    address [] public PatientList;\n    \n    mapping (address => Patient) public patient;\n    mapping (address => Doctor) public doctor;\n\n    function Register(string memory name, uint age, string memory gender, uint selection) public {\n        if (selection == 0){\n            Patient storage newpatient = patient[msg.sender];\n            newpatient.name = name;\n            newpatient.age = age;\n            newpatient.gender = gender;\n            PatientList.push(msg.sender);\n        }\n        else {\n            Doctor storage newdoctor = doctor[msg.sender];\n            newdoctor.name = name;\n            newdoctor.age = age;\n            newdoctor.gender = gender;\n            DoctorList.push(msg.sender);\n        }\n        \n    }\n\n    function getPatientsfromDoctor() public view returns (address[] memory){\n        return doctor[msg.sender].allowedpatientList;\n    }\n    function getpatientInfor(address _patient) public view returns(string memory, string memory, uint){\n        Patient storage pa = patient[_patient];\n        return (pa.name, pa.gender, pa.age);\n    }\n\n    function getdoctorInfor(address _doctor) public view returns(string memory, string memory, uint){\n        Doctor storage d = doctor[_doctor];\n        return (d.name, d.gender, d.age);\n    }\n\n    function getdoctors() public view returns (address[] memory){\n        return DoctorList;\n    }\n\n    function getpatients() public view returns (address[] memory){\n        return PatientList;\n    }\n\n    function getAlloweddoctor(address _patient) public view returns (address[] memory){\n        return patient[_patient].alloweddoctorList;\n\n    }\n\n    function getAllowedpatient(address _doctor) public view returns (address[] memory){\n        return doctor[_doctor].allowedpatientList;\n\n    }\n\n    function grantDoctorAccess(address Addressdoctor) public{\n        patient[msg.sender].alloweddoctorList.push(Addressdoctor);\n        doctor[Addressdoctor].allowedpatientList.push(msg.sender);\n\n    }\n\n    function revokeDoctorAccess(address Addressdoctor) public{\n        address[] storage doctors = patient[msg.sender].alloweddoctorList;\n        for (uint index =0; index <doctors.length; index ++){\n            if (doctors[index] == Addressdoctor){\n                doctors[index] = doctors[doctors.length -1];\n                doctors.pop();\n                break;\n            }\n        }\n\n        address[] storage patients = doctor[Addressdoctor].allowedpatientList;\n        for (uint index =0; index < patients.length; index ++){\n            if (patients[index] == msg.sender){\n                patients[index] = patients[patients.length -1];\n                patients.pop();\n                break;\n            }\n        }\n    }\n\n    function addEHR(address _patient, string memory _diagnosis, string memory _information) public{\n        HealthNote memory newHN = HealthNote ({diagnosis: _diagnosis, information: _information, time: block.timestamp, doctor: msg.sender});\n        patient[_patient].records.push(newHN);\n        \n        address [] storage doctors = patient[_patient].alloweddoctorList;\n        for (uint index =0; index <doctors.length; index ++){\n            if (doctors[index] == msg.sender){\n                doctors[index] = doctors[doctors.length -1];\n                doctors.pop();\n                break;\n            }\n        }\n        address[] storage patients = doctor[msg.sender].allowedpatientList;\n        for (uint index =0; index < patients.length; index ++){\n            if (patients[index] == _patient){\n                patients[index] = patients[patients.length -1];\n                patients.pop();\n                break;\n            }\n        }\n    }\n\n    function getEHR(address _patient) public view returns (HealthNote[] memory){\n        return patient[_patient].records;\n    }\n}",
  "sourcePath": "/Users/jiajunliu/EHR-blockchain/contracts/EHR.sol",
  "compiler": {
    "name": "solc",
    "version": "0.8.0+commit.c7dfd78e.Emscripten.clang"
  },
  "schemaVersion": "3.4.16",
  "updatedAt": "2024-09-02T08:35:30.661Z",
  "networkType": "ethereum",
  "devdoc": {
    "kind": "dev",
    "methods": {},
    "version": 1
  },
  "userdoc": {
    "kind": "user",
    "methods": {},
    "version": 1
  }
}