{
  "contractName": "Migration",
  "abi": [
    {
      "constant": true,
      "inputs": [],
      "name": "last_Completed_Migration",
      "outputs": [
        {
          "name": "",
          "type": "uint256"
        }
      ],
      "payable": false,
      "stateMutability": "view",
      "type": "function"
    },
    {
      "constant": true,
      "inputs": [],
      "name": "owner",
      "outputs": [
        {
          "name": "",
          "type": "address"
        }
      ],
      "payable": false,
      "stateMutability": "view",
      "type": "function"
    },
    {
      "inputs": [],
      "payable": false,
      "stateMutability": "nonpayable",
      "type": "constructor"
    },
    {
      "constant": false,
      "inputs": [
        {
          "name": "completed",
          "type": "uint256"
        }
      ],
      "name": "setCompleted",
      "outputs": [],
      "payable": false,
      "stateMutability": "nonpayable",
      "type": "function"
    },
    {
      "constant": false,
      "inputs": [
        {
          "name": "new_address",
          "type": "address"
        }
      ],
      "name": "upgrade",
      "outputs": [],
      "payable": false,
      "stateMutability": "nonpayable",
      "type": "function"
    }
  ],
  "bytecode": "0x608060405234801561001057600080fd5b50336000806101000a81548173ffffffffffffffffffffffffffffffffffffffff021916908373ffffffffffffffffffffffffffffffffffffffff160217905550610436806100606000396000f3fe60806040526004361061005c576000357c010000000000000000000000000000000000000000000000000000000090048063034580d2146100615780630900f0101461008c5780638da5cb5b146100dd578063fdacd57614610134575b600080fd5b34801561006d57600080fd5b5061007661016f565b6040518082815260200191505060405180910390f35b34801561009857600080fd5b506100db600480360360208110156100af57600080fd5b81019080803573ffffffffffffffffffffffffffffffffffffffff169060200190929190505050610175565b005b3480156100e957600080fd5b506100f26102f1565b604051808273ffffffffffffffffffffffffffffffffffffffff1673ffffffffffffffffffffffffffffffffffffffff16815260200191505060405180910390f35b34801561014057600080fd5b5061016d6004803603602081101561015757600080fd5b8101908080359060200190929190505050610316565b005b60015481565b6000809054906101000a900473ffffffffffffffffffffffffffffffffffffffff1673ffffffffffffffffffffffffffffffffffffffff163373ffffffffffffffffffffffffffffffffffffffff1614151561025f576040517f08c379a00000000000000000000000000000000000000000000000000000000081526004018080602001828103825260258152602001807f4f6e6c79205265737472696374656420746f2074686520436f6e74726163742081526020017f4f776e657200000000000000000000000000000000000000000000000000000081525060400191505060405180910390fd5b60008190508073ffffffffffffffffffffffffffffffffffffffff1663fdacd5766001546040518263ffffffff167c010000000000000000000000000000000000000000000000000000000002815260040180828152602001915050600060405180830381600087803b1580156102d557600080fd5b505af11580156102e9573d6000803e3d6000fd5b505050505050565b6000809054906101000a900473ffffffffffffffffffffffffffffffffffffffff1681565b6000809054906101000a900473ffffffffffffffffffffffffffffffffffffffff1673ffffffffffffffffffffffffffffffffffffffff163373ffffffffffffffffffffffffffffffffffffffff16141515610400576040517f08c379a00000000000000000000000000000000000000000000000000000000081526004018080602001828103825260258152602001807f4f6e6c79205265737472696374656420746f2074686520436f6e74726163742081526020017f4f776e657200000000000000000000000000000000000000000000000000000081525060400191505060405180910390fd5b806001819055505056fea165627a7a72305820a629645b01a08d5a8b1bef3f146dbcb6ed393c5366d43e7d53906b83a5b3d7e80029",
  "source": "// SPDX-License-Identifier: MIT\npragma solidity >=0.4.22 <0.9.0;\ncontract Migration{\n    address public owner;\n\n    uint public last_Completed_Migration;\n\n\n    modifier restricted() {\n        require(msg.sender == owner, \"Only Restricted to the Contract Owner\");\n        _;\n    }\n\n    constructor() public {\n        owner = msg.sender;\n    }\n    \n\n    function setCompleted(uint completed) public restricted {\n        last_Completed_Migration = completed;\n    }\n\n    function upgrade(address new_address) public restricted {\n        Migration upgraded = Migration(new_address);\n        upgraded.setCompleted(last_Completed_Migration);\n    }\n}",
  "sourcePath": "/Users/jiajunliu/EHR-blockchain/contracts/Migration.sol",
  "compiler": {
    "name": "solc",
    "version": "0.5.1+commit.c8a2cb62.Emscripten.clang"
  },
  "schemaVersion": "3.4.16",
  "updatedAt": "2024-09-02T08:35:30.442Z",
  "networkType": "ethereum",
  "devdoc": {
    "methods": {}
  },
  "userdoc": {
    "methods": {}
  }
}